{
  "_format": "hh-sol-artifact-1",
  "contractName": "Voting",
  "sourceName": "contracts/Voting.sol",
  "abi": [
    {
      "inputs": [],
      "stateMutability": "nonpayable",
      "type": "constructor"
    },
    {
      "inputs": [
        {
          "internalType": "string",
          "name": "name",
          "type": "string"
        },
        {
          "internalType": "string",
          "name": "ipfsHash",
          "type": "string"
        }
      ],
      "name": "addCandidate",
      "outputs": [],
      "stateMutability": "nonpayable",
      "type": "function"
    },
    {
      "inputs": [
        {
          "internalType": "uint256",
          "name": "",
          "type": "uint256"
        }
      ],
      "name": "candidates",
      "outputs": [
        {
          "internalType": "string",
          "name": "name",
          "type": "string"
        },
        {
          "internalType": "string",
          "name": "ipfsHash",
          "type": "string"
        },
        {
          "internalType": "uint256",
          "name": "voteCount",
          "type": "uint256"
        }
      ],
      "stateMutability": "view",
      "type": "function"
    },
    {
      "inputs": [],
      "name": "chairperson",
      "outputs": [
        {
          "internalType": "address",
          "name": "",
          "type": "address"
        }
      ],
      "stateMutability": "view",
      "type": "function"
    },
    {
      "inputs": [],
      "name": "electionEnded",
      "outputs": [
        {
          "internalType": "bool",
          "name": "",
          "type": "bool"
        }
      ],
      "stateMutability": "view",
      "type": "function"
    },
    {
      "inputs": [],
      "name": "electionStarted",
      "outputs": [
        {
          "internalType": "bool",
          "name": "",
          "type": "bool"
        }
      ],
      "stateMutability": "view",
      "type": "function"
    },
    {
      "inputs": [],
      "name": "endElection",
      "outputs": [],
      "stateMutability": "nonpayable",
      "type": "function"
    },
    {
      "inputs": [],
      "name": "getCandidates",
      "outputs": [
        {
          "components": [
            {
              "internalType": "string",
              "name": "name",
              "type": "string"
            },
            {
              "internalType": "string",
              "name": "ipfsHash",
              "type": "string"
            },
            {
              "internalType": "uint256",
              "name": "voteCount",
              "type": "uint256"
            }
          ],
          "internalType": "struct Voting.Candidate[]",
          "name": "",
          "type": "tuple[]"
        }
      ],
      "stateMutability": "view",
      "type": "function"
    },
    {
      "inputs": [
        {
          "internalType": "uint256",
          "name": "index",
          "type": "uint256"
        }
      ],
      "name": "removeCandidate",
      "outputs": [],
      "stateMutability": "nonpayable",
      "type": "function"
    },
    {
      "inputs": [],
      "name": "startElection",
      "outputs": [],
      "stateMutability": "nonpayable",
      "type": "function"
    },
    {
      "inputs": [
        {
          "internalType": "uint256",
          "name": "candidateIndex",
          "type": "uint256"
        }
      ],
      "name": "vote",
      "outputs": [],
      "stateMutability": "nonpayable",
      "type": "function"
    },
    {
      "inputs": [
        {
          "internalType": "address",
          "name": "",
          "type": "address"
        }
      ],
      "name": "voters",
      "outputs": [
        {
          "internalType": "bool",
          "name": "",
          "type": "bool"
        }
      ],
      "stateMutability": "view",
      "type": "function"
    }
  ],
  "bytecode": "0x608060405234801561001057600080fd5b50336000806101000a81548173ffffffffffffffffffffffffffffffffffffffff021916908373ffffffffffffffffffffffffffffffffffffffff16021790555060008060146101000a81548160ff02191690831515021790555060008060156101000a81548160ff021916908315150217905550611945806100946000396000f3fe608060405234801561001057600080fd5b50600436106100a95760003560e01c80633477ee2e116100715780633477ee2e1461013e57806359f784681461017057806362d73eb81461017a578063a3ec138d14610184578063c94ca9e3146101b4578063d5346da1146101d2576100a9565b80630121b93f146100ae57806306a49fce146100ca57806309e9d7e2146100e857806326541b56146101045780632e4176cf14610120575b600080fd5b6100c860048036038101906100c39190610c53565b6101f0565b005b6100d261037c565b6040516100df9190610e38565b60405180910390f35b61010260048036038101906100fd9190610c53565b610509565b005b61011e60048036038101906101199190610f8f565b6106be565b005b6101286107cf565b6040516101359190611048565b60405180910390f35b61015860048036038101906101539190610c53565b6107f3565b604051610167939291906110bc565b60405180910390f35b61017861093d565b005b610182610a51565b005b61019e6004803603810190610199919061112d565b610b66565b6040516101ab9190611175565b60405180910390f35b6101bc610b86565b6040516101c99190611175565b60405180910390f35b6101da610b99565b6040516101e79190611175565b60405180910390f35b600060149054906101000a900460ff1680156102195750600060159054906101000a900460ff16155b610258576040517f08c379a000000000000000000000000000000000000000000000000000000000815260040161024f906111dc565b60405180910390fd5b600260003373ffffffffffffffffffffffffffffffffffffffff1673ffffffffffffffffffffffffffffffffffffffff16815260200190815260200160002060009054906101000a900460ff16156102e5576040517f08c379a00000000000000000000000000000000000000000000000000000000081526004016102dc90611248565b60405180910390fd5b6001600260003373ffffffffffffffffffffffffffffffffffffffff1673ffffffffffffffffffffffffffffffffffffffff16815260200190815260200160002060006101000a81548160ff021916908315150217905550600180828154811061035257610351611268565b5b9060005260206000209060030201600201600082825461037291906112c6565b9250508190555050565b60606001805480602002602001604051908101604052809291908181526020016000905b8282101561050057838290600052602060002090600302016040518060600160405290816000820180546103d390611329565b80601f01602080910402602001604051908101604052809291908181526020018280546103ff90611329565b801561044c5780601f106104215761010080835404028352916020019161044c565b820191906000526020600020905b81548152906001019060200180831161042f57829003601f168201915b5050505050815260200160018201805461046590611329565b80601f016020809104026020016040519081016040528092919081815260200182805461049190611329565b80156104de5780601f106104b3576101008083540402835291602001916104de565b820191906000526020600020905b8154815290600101906020018083116104c157829003601f168201915b50505050508152602001600282015481525050815260200190600101906103a0565b50505050905090565b60008054906101000a900473ffffffffffffffffffffffffffffffffffffffff1673ffffffffffffffffffffffffffffffffffffffff163373ffffffffffffffffffffffffffffffffffffffff1614610597576040517f08c379a000000000000000000000000000000000000000000000000000000000815260040161058e906113cc565b60405180910390fd5b60018054905081106105de576040517f08c379a00000000000000000000000000000000000000000000000000000000081526004016105d590611438565b60405180910390fd5b60018080805490506105f09190611458565b8154811061060157610600611268565b5b90600052602060002090600302016001828154811061062357610622611268565b5b906000526020600020906003020160008201816000019081610645919061164e565b506001820181600101908161065a919061164e565b5060028201548160020155905050600180548061067a57610679611736565b5b60019003818190600052602060002090600302016000808201600061069f9190610bac565b6001820160006106af9190610bac565b60028201600090555050905550565b60008054906101000a900473ffffffffffffffffffffffffffffffffffffffff1673ffffffffffffffffffffffffffffffffffffffff163373ffffffffffffffffffffffffffffffffffffffff161461074c576040517f08c379a0000000000000000000000000000000000000000000000000000000008152600401610743906113cc565b60405180910390fd5b600160405180606001604052808481526020018381526020016000815250908060018154018082558091505060019003906000526020600020906003020160009091909190915060008201518160000190816107a89190611765565b5060208201518160010190816107be9190611765565b506040820151816002015550505050565b60008054906101000a900473ffffffffffffffffffffffffffffffffffffffff1681565b6001818154811061080357600080fd5b906000526020600020906003020160009150905080600001805461082690611329565b80601f016020809104026020016040519081016040528092919081815260200182805461085290611329565b801561089f5780601f106108745761010080835404028352916020019161089f565b820191906000526020600020905b81548152906001019060200180831161088257829003601f168201915b5050505050908060010180546108b490611329565b80601f01602080910402602001604051908101604052809291908181526020018280546108e090611329565b801561092d5780601f106109025761010080835404028352916020019161092d565b820191906000526020600020905b81548152906001019060200180831161091057829003601f168201915b5050505050908060020154905083565b60008054906101000a900473ffffffffffffffffffffffffffffffffffffffff1673ffffffffffffffffffffffffffffffffffffffff163373ffffffffffffffffffffffffffffffffffffffff16146109cb576040517f08c379a00000000000000000000000000000000000000000000000000000000081526004016109c2906113cc565b60405180910390fd5b600060149054906101000a900460ff16610a1a576040517f08c379a0000000000000000000000000000000000000000000000000000000008152600401610a1190611883565b60405180910390fd5b60008060146101000a81548160ff0219169083151502179055506001600060156101000a81548160ff021916908315150217905550565b60008054906101000a900473ffffffffffffffffffffffffffffffffffffffff1673ffffffffffffffffffffffffffffffffffffffff163373ffffffffffffffffffffffffffffffffffffffff1614610adf576040517f08c379a0000000000000000000000000000000000000000000000000000000008152600401610ad6906113cc565b60405180910390fd5b600060149054906101000a900460ff1615610b2f576040517f08c379a0000000000000000000000000000000000000000000000000000000008152600401610b26906118ef565b60405180910390fd5b6001600060146101000a81548160ff02191690831515021790555060008060156101000a81548160ff021916908315150217905550565b60026020528060005260406000206000915054906101000a900460ff1681565b600060159054906101000a900460ff1681565b600060149054906101000a900460ff1681565b508054610bb890611329565b6000825580601f10610bca5750610be9565b601f016020900490600052602060002090810190610be89190610bec565b5b50565b5b80821115610c05576000816000905550600101610bed565b5090565b6000604051905090565b600080fd5b600080fd5b6000819050919050565b610c3081610c1d565b8114610c3b57600080fd5b50565b600081359050610c4d81610c27565b92915050565b600060208284031215610c6957610c68610c13565b5b6000610c7784828501610c3e565b91505092915050565b600081519050919050565b600082825260208201905092915050565b6000819050602082019050919050565b600081519050919050565b600082825260208201905092915050565b60005b83811015610ce6578082015181840152602081019050610ccb565b60008484015250505050565b6000601f19601f8301169050919050565b6000610d0e82610cac565b610d188185610cb7565b9350610d28818560208601610cc8565b610d3181610cf2565b840191505092915050565b610d4581610c1d565b82525050565b60006060830160008301518482036000860152610d688282610d03565b91505060208301518482036020860152610d828282610d03565b9150506040830151610d976040860182610d3c565b508091505092915050565b6000610dae8383610d4b565b905092915050565b6000602082019050919050565b6000610dce82610c80565b610dd88185610c8b565b935083602082028501610dea85610c9c565b8060005b85811015610e265784840389528151610e078582610da2565b9450610e1283610db6565b925060208a01995050600181019050610dee565b50829750879550505050505092915050565b60006020820190508181036000830152610e528184610dc3565b905092915050565b600080fd5b600080fd5b7f4e487b7100000000000000000000000000000000000000000000000000000000600052604160045260246000fd5b610e9c82610cf2565b810181811067ffffffffffffffff82111715610ebb57610eba610e64565b5b80604052505050565b6000610ece610c09565b9050610eda8282610e93565b919050565b600067ffffffffffffffff821115610efa57610ef9610e64565b5b610f0382610cf2565b9050602081019050919050565b82818337600083830152505050565b6000610f32610f2d84610edf565b610ec4565b905082815260208101848484011115610f4e57610f4d610e5f565b5b610f59848285610f10565b509392505050565b600082601f830112610f7657610f75610e5a565b5b8135610f86848260208601610f1f565b91505092915050565b60008060408385031215610fa657610fa5610c13565b5b600083013567ffffffffffffffff811115610fc457610fc3610c18565b5b610fd085828601610f61565b925050602083013567ffffffffffffffff811115610ff157610ff0610c18565b5b610ffd85828601610f61565b9150509250929050565b600073ffffffffffffffffffffffffffffffffffffffff82169050919050565b600061103282611007565b9050919050565b61104281611027565b82525050565b600060208201905061105d6000830184611039565b92915050565b600082825260208201905092915050565b600061107f82610cac565b6110898185611063565b9350611099818560208601610cc8565b6110a281610cf2565b840191505092915050565b6110b681610c1d565b82525050565b600060608201905081810360008301526110d68186611074565b905081810360208301526110ea8185611074565b90506110f960408301846110ad565b949350505050565b61110a81611027565b811461111557600080fd5b50565b60008135905061112781611101565b92915050565b60006020828403121561114357611142610c13565b5b600061115184828501611118565b91505092915050565b60008115159050919050565b61116f8161115a565b82525050565b600060208201905061118a6000830184611166565b92915050565b7f456c656374696f6e206973206e6f742061637469766500000000000000000000600082015250565b60006111c6601683611063565b91506111d182611190565b602082019050919050565b600060208201905081810360008301526111f5816111b9565b9050919050565b7f596f75206861766520616c726561647920766f74656400000000000000000000600082015250565b6000611232601683611063565b915061123d826111fc565b602082019050919050565b6000602082019050818103600083015261126181611225565b9050919050565b7f4e487b7100000000000000000000000000000000000000000000000000000000600052603260045260246000fd5b7f4e487b7100000000000000000000000000000000000000000000000000000000600052601160045260246000fd5b60006112d182610c1d565b91506112dc83610c1d565b92508282019050808211156112f4576112f3611297565b5b92915050565b7f4e487b7100000000000000000000000000000000000000000000000000000000600052602260045260246000fd5b6000600282049050600182168061134157607f821691505b602082108103611354576113536112fa565b5b50919050565b7f4f6e6c79206368616972706572736f6e2063616e2063616c6c2074686973206660008201527f756e6374696f6e00000000000000000000000000000000000000000000000000602082015250565b60006113b6602783611063565b91506113c18261135a565b604082019050919050565b600060208201905081810360008301526113e5816113a9565b9050919050565b7f496e76616c69642063616e64696461746520696e646578000000000000000000600082015250565b6000611422601783611063565b915061142d826113ec565b602082019050919050565b6000602082019050818103600083015261145181611415565b9050919050565b600061146382610c1d565b915061146e83610c1d565b925082820390508181111561148657611485611297565b5b92915050565b60008154905061149b81611329565b9050919050565b60008190508160005260206000209050919050565b60006020601f8301049050919050565b600082821b905092915050565b6000600883026115047fffffffffffffffffffffffffffffffffffffffffffffffffffffffffffffffff826114c7565b61150e86836114c7565b95508019841693508086168417925050509392505050565b6000819050919050565b600061154b61154661154184610c1d565b611526565b610c1d565b9050919050565b6000819050919050565b61156583611530565b61157961157182611552565b8484546114d4565b825550505050565b600090565b61158e611581565b61159981848461155c565b505050565b5b818110156115bd576115b2600082611586565b60018101905061159f565b5050565b601f821115611602576115d3816114a2565b6115dc846114b7565b810160208510156115eb578190505b6115ff6115f7856114b7565b83018261159e565b50505b505050565b600082821c905092915050565b600061162560001984600802611607565b1980831691505092915050565b600061163e8383611614565b9150826002028217905092915050565b81810361165c575050611734565b6116658261148c565b67ffffffffffffffff81111561167e5761167d610e64565b5b6116888254611329565b6116938282856115c1565b6000601f8311600181146116c257600084156116b0578287015490505b6116ba8582611632565b86555061172d565b601f1984166116d0876114a2565b96506116db866114a2565b60005b82811015611703578489015482556001820191506001850194506020810190506116de565b86831015611720578489015461171c601f891682611614565b8355505b6001600288020188555050505b5050505050505b565b7f4e487b7100000000000000000000000000000000000000000000000000000000600052603160045260246000fd5b61176e82610cac565b67ffffffffffffffff81111561178757611786610e64565b5b6117918254611329565b61179c8282856115c1565b600060209050601f8311600181146117cf57600084156117bd578287015190505b6117c78582611632565b86555061182f565b601f1984166117dd866114a2565b60005b82811015611805578489015182556001820191506020850194506020810190506117e0565b86831015611822578489015161181e601f891682611614565b8355505b6001600288020188555050505b505050505050565b7f456c656374696f6e20686173206e6f7420737461727465640000000000000000600082015250565b600061186d601883611063565b915061187882611837565b602082019050919050565b6000602082019050818103600083015261189c81611860565b9050919050565b7f456c656374696f6e20616c726561647920737461727465640000000000000000600082015250565b60006118d9601883611063565b91506118e4826118a3565b602082019050919050565b60006020820190508181036000830152611908816118cc565b905091905056fea2646970667358221220b2b618c6f51b169db48bd021fb7d2f024077db1b427294a5ad53126c4855ccf964736f6c63430008180033",
  "linkReferences": {},
  "deployedLinkReferences": {}
}